{
  "contractName": "GardenContract",
  "abi": [
    {
      "inputs": [],
      "stateMutability": "nonpayable",
      "type": "constructor"
    },
    {
      "inputs": [
        {
          "internalType": "address",
          "name": "sender",
          "type": "address"
        },
        {
          "internalType": "uint256",
          "name": "tokenId",
          "type": "uint256"
        },
        {
          "internalType": "address",
          "name": "owner",
          "type": "address"
        }
      ],
      "name": "ERC721IncorrectOwner",
      "type": "error"
    },
    {
      "inputs": [
        {
          "internalType": "address",
          "name": "operator",
          "type": "address"
        },
        {
          "internalType": "uint256",
          "name": "tokenId",
          "type": "uint256"
        }
      ],
      "name": "ERC721InsufficientApproval",
      "type": "error"
    },
    {
      "inputs": [
        {
          "internalType": "address",
          "name": "approver",
          "type": "address"
        }
      ],
      "name": "ERC721InvalidApprover",
      "type": "error"
    },
    {
      "inputs": [
        {
          "internalType": "address",
          "name": "operator",
          "type": "address"
        }
      ],
      "name": "ERC721InvalidOperator",
      "type": "error"
    },
    {
      "inputs": [
        {
          "internalType": "address",
          "name": "owner",
          "type": "address"
        }
      ],
      "name": "ERC721InvalidOwner",
      "type": "error"
    },
    {
      "inputs": [
        {
          "internalType": "address",
          "name": "receiver",
          "type": "address"
        }
      ],
      "name": "ERC721InvalidReceiver",
      "type": "error"
    },
    {
      "inputs": [
        {
          "internalType": "address",
          "name": "sender",
          "type": "address"
        }
      ],
      "name": "ERC721InvalidSender",
      "type": "error"
    },
    {
      "inputs": [
        {
          "internalType": "uint256",
          "name": "tokenId",
          "type": "uint256"
        }
      ],
      "name": "ERC721NonexistentToken",
      "type": "error"
    },
    {
      "inputs": [
        {
          "internalType": "address",
          "name": "owner",
          "type": "address"
        }
      ],
      "name": "OwnableInvalidOwner",
      "type": "error"
    },
    {
      "inputs": [
        {
          "internalType": "address",
          "name": "account",
          "type": "address"
        }
      ],
      "name": "OwnableUnauthorizedAccount",
      "type": "error"
    },
    {
      "anonymous": false,
      "inputs": [
        {
          "indexed": true,
          "internalType": "address",
          "name": "owner",
          "type": "address"
        },
        {
          "indexed": true,
          "internalType": "address",
          "name": "approved",
          "type": "address"
        },
        {
          "indexed": true,
          "internalType": "uint256",
          "name": "tokenId",
          "type": "uint256"
        }
      ],
      "name": "Approval",
      "type": "event"
    },
    {
      "anonymous": false,
      "inputs": [
        {
          "indexed": true,
          "internalType": "address",
          "name": "owner",
          "type": "address"
        },
        {
          "indexed": true,
          "internalType": "address",
          "name": "operator",
          "type": "address"
        },
        {
          "indexed": false,
          "internalType": "bool",
          "name": "approved",
          "type": "bool"
        }
      ],
      "name": "ApprovalForAll",
      "type": "event"
    },
    {
      "anonymous": false,
      "inputs": [
        {
          "indexed": false,
          "internalType": "uint256",
          "name": "_fromTokenId",
          "type": "uint256"
        },
        {
          "indexed": false,
          "internalType": "uint256",
          "name": "_toTokenId",
          "type": "uint256"
        }
      ],
      "name": "BatchMetadataUpdate",
      "type": "event"
    },
    {
      "anonymous": false,
      "inputs": [
        {
          "indexed": true,
          "internalType": "uint256",
          "name": "gardenID",
          "type": "uint256"
        },
        {
          "indexed": false,
          "internalType": "address",
          "name": "owner",
          "type": "address"
        },
        {
          "indexed": false,
          "internalType": "enum GardenContract.GardenSize",
          "name": "size",
          "type": "uint8"
        },
        {
          "indexed": false,
          "internalType": "enum GardenContract.GardenType",
          "name": "gardenType",
          "type": "uint8"
        }
      ],
      "name": "GardenRegistered",
      "type": "event"
    },
    {
      "anonymous": false,
      "inputs": [
        {
          "indexed": false,
          "internalType": "uint256",
          "name": "_tokenId",
          "type": "uint256"
        }
      ],
      "name": "MetadataUpdate",
      "type": "event"
    },
    {
      "anonymous": false,
      "inputs": [
        {
          "indexed": true,
          "internalType": "address",
          "name": "previousOwner",
          "type": "address"
        },
        {
          "indexed": true,
          "internalType": "address",
          "name": "newOwner",
          "type": "address"
        }
      ],
      "name": "OwnershipTransferred",
      "type": "event"
    },
    {
      "anonymous": false,
      "inputs": [
        {
          "indexed": true,
          "internalType": "uint256",
          "name": "gardenID",
          "type": "uint256"
        },
        {
          "indexed": true,
          "internalType": "uint256",
          "name": "plantID",
          "type": "uint256"
        },
        {
          "indexed": false,
          "internalType": "string",
          "name": "metadataURI",
          "type": "string"
        }
      ],
      "name": "PlantAdded",
      "type": "event"
    },
    {
      "anonymous": false,
      "inputs": [
        {
          "indexed": true,
          "internalType": "address",
          "name": "from",
          "type": "address"
        },
        {
          "indexed": true,
          "internalType": "address",
          "name": "to",
          "type": "address"
        },
        {
          "indexed": true,
          "internalType": "uint256",
          "name": "tokenId",
          "type": "uint256"
        }
      ],
      "name": "Transfer",
      "type": "event"
    },
    {
      "inputs": [
        {
          "internalType": "address",
          "name": "to",
          "type": "address"
        },
        {
          "internalType": "uint256",
          "name": "tokenId",
          "type": "uint256"
        }
      ],
      "name": "approve",
      "outputs": [],
      "stateMutability": "nonpayable",
      "type": "function"
    },
    {
      "inputs": [
        {
          "internalType": "address",
          "name": "owner",
          "type": "address"
        }
      ],
      "name": "balanceOf",
      "outputs": [
        {
          "internalType": "uint256",
          "name": "",
          "type": "uint256"
        }
      ],
      "stateMutability": "view",
      "type": "function"
    },
    {
      "inputs": [
        {
          "internalType": "uint256",
          "name": "",
          "type": "uint256"
        }
      ],
      "name": "gardens",
      "outputs": [
        {
          "internalType": "uint256",
          "name": "gardenID",
          "type": "uint256"
        },
        {
          "internalType": "address",
          "name": "owner",
          "type": "address"
        },
        {
          "internalType": "enum GardenContract.GardenSize",
          "name": "size",
          "type": "uint8"
        },
        {
          "internalType": "enum GardenContract.GardenType",
          "name": "gardenType",
          "type": "uint8"
        }
      ],
      "stateMutability": "view",
      "type": "function"
    },
    {
      "inputs": [
        {
          "internalType": "uint256",
          "name": "tokenId",
          "type": "uint256"
        }
      ],
      "name": "getApproved",
      "outputs": [
        {
          "internalType": "address",
          "name": "",
          "type": "address"
        }
      ],
      "stateMutability": "view",
      "type": "function"
    },
    {
      "inputs": [
        {
          "internalType": "address",
          "name": "owner",
          "type": "address"
        },
        {
          "internalType": "address",
          "name": "operator",
          "type": "address"
        }
      ],
      "name": "isApprovedForAll",
      "outputs": [
        {
          "internalType": "bool",
          "name": "",
          "type": "bool"
        }
      ],
      "stateMutability": "view",
      "type": "function"
    },
    {
      "inputs": [],
      "name": "name",
      "outputs": [
        {
          "internalType": "string",
          "name": "",
          "type": "string"
        }
      ],
      "stateMutability": "view",
      "type": "function"
    },
    {
      "inputs": [],
      "name": "owner",
      "outputs": [
        {
          "internalType": "address",
          "name": "",
          "type": "address"
        }
      ],
      "stateMutability": "view",
      "type": "function"
    },
    {
      "inputs": [
        {
          "internalType": "uint256",
          "name": "tokenId",
          "type": "uint256"
        }
      ],
      "name": "ownerOf",
      "outputs": [
        {
          "internalType": "address",
          "name": "",
          "type": "address"
        }
      ],
      "stateMutability": "view",
      "type": "function"
    },
    {
      "inputs": [],
      "name": "plantCounter",
      "outputs": [
        {
          "internalType": "uint256",
          "name": "",
          "type": "uint256"
        }
      ],
      "stateMutability": "view",
      "type": "function"
    },
    {
      "inputs": [
        {
          "internalType": "uint256",
          "name": "",
          "type": "uint256"
        }
      ],
      "name": "plants",
      "outputs": [
        {
          "internalType": "uint256",
          "name": "plantID",
          "type": "uint256"
        },
        {
          "internalType": "uint256",
          "name": "mintingDate",
          "type": "uint256"
        },
        {
          "internalType": "bool",
          "name": "isFruiting",
          "type": "bool"
        },
        {
          "internalType": "string",
          "name": "metadataURI",
          "type": "string"
        }
      ],
      "stateMutability": "view",
      "type": "function"
    },
    {
      "inputs": [],
      "name": "renounceOwnership",
      "outputs": [],
      "stateMutability": "nonpayable",
      "type": "function"
    },
    {
      "inputs": [
        {
          "internalType": "address",
          "name": "from",
          "type": "address"
        },
        {
          "internalType": "address",
          "name": "to",
          "type": "address"
        },
        {
          "internalType": "uint256",
          "name": "tokenId",
          "type": "uint256"
        }
      ],
      "name": "safeTransferFrom",
      "outputs": [],
      "stateMutability": "nonpayable",
      "type": "function"
    },
    {
      "inputs": [
        {
          "internalType": "address",
          "name": "from",
          "type": "address"
        },
        {
          "internalType": "address",
          "name": "to",
          "type": "address"
        },
        {
          "internalType": "uint256",
          "name": "tokenId",
          "type": "uint256"
        },
        {
          "internalType": "bytes",
          "name": "data",
          "type": "bytes"
        }
      ],
      "name": "safeTransferFrom",
      "outputs": [],
      "stateMutability": "nonpayable",
      "type": "function"
    },
    {
      "inputs": [
        {
          "internalType": "address",
          "name": "operator",
          "type": "address"
        },
        {
          "internalType": "bool",
          "name": "approved",
          "type": "bool"
        }
      ],
      "name": "setApprovalForAll",
      "outputs": [],
      "stateMutability": "nonpayable",
      "type": "function"
    },
    {
      "inputs": [
        {
          "internalType": "bytes4",
          "name": "interfaceId",
          "type": "bytes4"
        }
      ],
      "name": "supportsInterface",
      "outputs": [
        {
          "internalType": "bool",
          "name": "",
          "type": "bool"
        }
      ],
      "stateMutability": "view",
      "type": "function"
    },
    {
      "inputs": [],
      "name": "symbol",
      "outputs": [
        {
          "internalType": "string",
          "name": "",
          "type": "string"
        }
      ],
      "stateMutability": "view",
      "type": "function"
    },
    {
      "inputs": [
        {
          "internalType": "uint256",
          "name": "tokenId",
          "type": "uint256"
        }
      ],
      "name": "tokenURI",
      "outputs": [
        {
          "internalType": "string",
          "name": "",
          "type": "string"
        }
      ],
      "stateMutability": "view",
      "type": "function"
    },
    {
      "inputs": [
        {
          "internalType": "address",
          "name": "from",
          "type": "address"
        },
        {
          "internalType": "address",
          "name": "to",
          "type": "address"
        },
        {
          "internalType": "uint256",
          "name": "tokenId",
          "type": "uint256"
        }
      ],
      "name": "transferFrom",
      "outputs": [],
      "stateMutability": "nonpayable",
      "type": "function"
    },
    {
      "inputs": [
        {
          "internalType": "address",
          "name": "newOwner",
          "type": "address"
        }
      ],
      "name": "transferOwnership",
      "outputs": [],
      "stateMutability": "nonpayable",
      "type": "function"
    },
    {
      "inputs": [
        {
          "internalType": "uint256",
          "name": "_gardenID",
          "type": "uint256"
        },
        {
          "internalType": "enum GardenContract.GardenSize",
          "name": "_size",
          "type": "uint8"
        },
        {
          "internalType": "enum GardenContract.GardenType",
          "name": "_gardenType",
          "type": "uint8"
        }
      ],
      "name": "registerGarden",
      "outputs": [],
      "stateMutability": "nonpayable",
      "type": "function"
    },
    {
      "inputs": [
        {
          "internalType": "uint256",
          "name": "_gardenID",
          "type": "uint256"
        },
        {
          "internalType": "string",
          "name": "_metadataURI",
          "type": "string"
        }
      ],
      "name": "addPlant",
      "outputs": [],
      "stateMutability": "nonpayable",
      "type": "function"
    },
    {
      "inputs": [
        {
          "internalType": "uint256",
          "name": "_plantID",
          "type": "uint256"
        },
        {
          "internalType": "string",
          "name": "_newMetadataURI",
          "type": "string"
        },
        {
          "internalType": "bool",
          "name": "_isFruiting",
          "type": "bool"
        }
      ],
      "name": "updatePlantMetadata",
      "outputs": [],
      "stateMutability": "nonpayable",
      "type": "function"
    }
  ],
  "bytecode": "0x608060405234801562000010575f80fd5b50336040518060400160405280600b81526020017f4f6c696e6b506c616e74730000000000000000000000000000000000000000008152506040518060400160405280600481526020017f4f4c4b5000000000000000000000000000000000000000000000000000000000815250815f90816200008e919062000455565b508060019081620000a0919062000455565b5050505f73ffffffffffffffffffffffffffffffffffffffff168173ffffffffffffffffffffffffffffffffffffffff160362000116575f6040517f1e4fbdf70000000000000000000000000000000000000000000000000000000081526004016200010d91906200057c565b60405180910390fd5b62000127816200012e60201b60201c565b5062000597565b5f60075f9054906101000a900473ffffffffffffffffffffffffffffffffffffffff1690508160075f6101000a81548173ffffffffffffffffffffffffffffffffffffffff021916908373ffffffffffffffffffffffffffffffffffffffff1602179055508173ffffffffffffffffffffffffffffffffffffffff168173ffffffffffffffffffffffffffffffffffffffff167f8be0079c531659141344cd1fd0a4f28419497f9722a3daafe3b4186f6b6457e060405160405180910390a35050565b5f81519050919050565b7f4e487b71000000000000000000000000000000000000000000000000000000005f52604160045260245ffd5b7f4e487b71000000000000000000000000000000000000000000000000000000005f52602260045260245ffd5b5f60028204905060018216806200026d57607f821691505b60208210810362000283576200028262000228565b5b50919050565b5f819050815f5260205f209050919050565b5f6020601f8301049050919050565b5f82821b905092915050565b5f60088302620002e77fffffffffffffffffffffffffffffffffffffffffffffffffffffffffffffffff82620002aa565b620002f38683620002aa565b95508019841693508086168417925050509392505050565b5f819050919050565b5f819050919050565b5f6200033d6200033762000331846200030b565b62000314565b6200030b565b9050919050565b5f819050919050565b62000358836200031d565b62000370620003678262000344565b848454620002b6565b825550505050565b5f90565b6200038662000378565b620003938184846200034d565b505050565b5b81811015620003ba57620003ae5f826200037c565b60018101905062000399565b5050565b601f8211156200040957620003d38162000289565b620003de846200029b565b81016020851015620003ee578190505b62000406620003fd856200029b565b83018262000398565b50505b505050565b5f82821c905092915050565b5f6200042b5f19846008026200040e565b1980831691505092915050565b5f6200044583836200041a565b9150826002028217905092915050565b6200046082620001f1565b67ffffffffffffffff8111156200047c576200047b620001fb565b5b62000488825462000255565b62000495828285620003be565b5f60209050601f831160018114620004cb575f8415620004b6578287015190505b620004c2858262000438565b86555062000531565b601f198416620004db8662000289565b5f5b828110156200050457848901518255600182019150602085019450602081019050620004dd565b8683101562000524578489015162000520601f8916826200041a565b8355505b6001600288020188555050505b505050505050565b5f73ffffffffffffffffffffffffffffffffffffffff82169050919050565b5f620005648262000539565b9050919050565b620005768162000558565b82525050565b5f602082019050620005915f8301846200056b565b92915050565b612c4f80620005a55f395ff3fe608060405234801561000f575f80fd5b5060043610610140575f3560e01c80638dd2361c116100b6578063a22cb4651161007a578063a22cb46514610378578063b88d4fde14610394578063c3171e34146103b0578063c87b56dd146103cc578063e985e9c5146103fc578063f2fde38b1461042c57610140565b80638dd2361c146102ba57806392ed22db146102ed57806395d89b41146103095780639c471749146103275780639e18eb391461034557610140565b806323b872dd1161010857806323b872dd146101fa57806342842e0e146102165780636352211e1461023257806370a0823114610262578063715018a6146102925780638da5cb5b1461029c57610140565b806301ffc9a71461014457806305e3db3d1461017457806306fdde0314610190578063081812fc146101ae578063095ea7b3146101de575b5f80fd5b61015e60048036038101906101599190611e8b565b610448565b60405161016b9190611ed0565b60405180910390f35b61018e60048036038101906101899190611f62565b6104a8565b005b610198610606565b6040516101a5919061203c565b60405180910390f35b6101c860048036038101906101c3919061205c565b610695565b6040516101d591906120c6565b60405180910390f35b6101f860048036038101906101f39190612109565b6106b0565b005b610214600480360381019061020f9190612147565b6106c6565b005b610230600480360381019061022b9190612147565b6107c5565b005b61024c6004803603810190610247919061205c565b6107e4565b60405161025991906120c6565b60405180910390f35b61027c60048036038101906102779190612197565b6107f5565b60405161028991906121d1565b60405180910390f35b61029a6108ab565b005b6102a46108be565b6040516102b191906120c6565b60405180910390f35b6102d460048036038101906102cf919061205c565b6108e6565b6040516102e494939291906121ea565b60405180910390f35b6103076004803603810190610302919061238a565b6109a4565b005b610311610a00565b60405161031e919061203c565b60405180910390f35b61032f610a90565b60405161033c91906121d1565b60405180910390f35b61035f600480360381019061035a919061205c565b610a96565b60405161036f94939291906124af565b60405180910390f35b610392600480360381019061038d91906124f2565b610afb565b005b6103ae60048036038101906103a991906125ce565b610b11565b005b6103ca60048036038101906103c5919061264e565b610b36565b005b6103e660048036038101906103e1919061205c565b610c1d565b6040516103f3919061203c565b60405180910390f35b610416600480360381019061041191906126a8565b610d28565b6040516104239190611ed0565b60405180910390f35b61044660048036038101906104419190612197565b610db6565b005b5f634906490660e01b7bffffffffffffffffffffffffffffffffffffffffffffffffffffffff1916827bffffffffffffffffffffffffffffffffffffffffffffffffffffffff191614806104a157506104a082610e3a565b5b9050919050565b60405180608001604052808481526020013373ffffffffffffffffffffffffffffffffffffffff1681526020018360028111156104e8576104e76123f6565b5b8152602001826003811115610500576104ff6123f6565b5b81525060085f8581526020019081526020015f205f820151815f01556020820151816001015f6101000a81548173ffffffffffffffffffffffffffffffffffffffff021916908373ffffffffffffffffffffffffffffffffffffffff16021790555060408201518160010160146101000a81548160ff0219169083600281111561058d5761058c6123f6565b5b021790555060608201518160010160156101000a81548160ff021916908360038111156105bd576105bc6123f6565b5b0217905550905050827ff97e9bdf523d37c7aef233dc495448775fca4cc8035bcfc806cf476766ece2c53384846040516105f9939291906126e6565b60405180910390a2505050565b60605f805461061490612748565b80601f016020809104026020016040519081016040528092919081815260200182805461064090612748565b801561068b5780601f106106625761010080835404028352916020019161068b565b820191905f5260205f20905b81548152906001019060200180831161066e57829003601f168201915b5050505050905090565b5f61069f82610f1b565b506106a982610fa1565b9050919050565b6106c282826106bd610fda565b610fe1565b5050565b5f73ffffffffffffffffffffffffffffffffffffffff168273ffffffffffffffffffffffffffffffffffffffff1603610736575f6040517f64a0ae9200000000000000000000000000000000000000000000000000000000815260040161072d91906120c6565b60405180910390fd5b5f6107498383610744610fda565b610ff3565b90508373ffffffffffffffffffffffffffffffffffffffff168173ffffffffffffffffffffffffffffffffffffffff16146107bf578382826040517f64283d7b0000000000000000000000000000000000000000000000000000000081526004016107b693929190612778565b60405180910390fd5b50505050565b6107df83838360405180602001604052805f815250610b11565b505050565b5f6107ee82610f1b565b9050919050565b5f8073ffffffffffffffffffffffffffffffffffffffff168273ffffffffffffffffffffffffffffffffffffffff1603610866575f6040517f89c62b6400000000000000000000000000000000000000000000000000000000815260040161085d91906120c6565b60405180910390fd5b60035f8373ffffffffffffffffffffffffffffffffffffffff1673ffffffffffffffffffffffffffffffffffffffff1681526020019081526020015f20549050919050565b6108b36111fe565b6108bc5f611285565b565b5f60075f9054906101000a900473ffffffffffffffffffffffffffffffffffffffff16905090565b6009602052805f5260405f205f91509050805f015490806001015490806002015f9054906101000a900460ff169080600301805461092390612748565b80601f016020809104026020016040519081016040528092919081815260200182805461094f90612748565b801561099a5780601f106109715761010080835404028352916020019161099a565b820191905f5260205f20905b81548152906001019060200180831161097d57829003601f168201915b5050505050905084565b8160095f8581526020019081526020015f2060030190816109c5919061294a565b508060095f8581526020019081526020015f206002015f6101000a81548160ff0219169083151502179055506109fb8383611348565b505050565b606060018054610a0f90612748565b80601f0160208091040260200160405190810160405280929190818152602001828054610a3b90612748565b8015610a865780601f10610a5d57610100808354040283529160200191610a86565b820191905f5260205f20905b815481529060010190602001808311610a6957829003601f168201915b5050505050905090565b600a5481565b6008602052805f5260405f205f91509050805f015490806001015f9054906101000a900473ffffffffffffffffffffffffffffffffffffffff16908060010160149054906101000a900460ff16908060010160159054906101000a900460ff16905084565b610b0d610b06610fda565b83836113a2565b5050565b610b1c8484846106c6565b610b30610b27610fda565b8585858561150b565b50505050565b5f600a5f8154610b4590612a46565b919050819055905060405180608001604052808281526020014281526020015f151581526020018381525060095f8381526020019081526020015f205f820151815f0155602082015181600101556040820151816002015f6101000a81548160ff0219169083151502179055506060820151816003019081610bc7919061294a565b50905050610bd533826116b7565b610bdf8183611348565b80837fac87694b327e99b8450d9ccdc26ba47d4d7c03d423904be9d06ac64c9380b92484604051610c10919061203c565b60405180910390a3505050565b6060610c2882610f1b565b505f60065f8481526020019081526020015f208054610c4690612748565b80601f0160208091040260200160405190810160405280929190818152602001828054610c7290612748565b8015610cbd5780601f10610c9457610100808354040283529160200191610cbd565b820191905f5260205f20905b815481529060010190602001808311610ca057829003601f168201915b505050505090505f610ccd6117aa565b90505f815103610ce1578192505050610d23565b5f82511115610d15578082604051602001610cfd929190612ac7565b60405160208183030381529060405292505050610d23565b610d1e846117c0565b925050505b919050565b5f60055f8473ffffffffffffffffffffffffffffffffffffffff1673ffffffffffffffffffffffffffffffffffffffff1681526020019081526020015f205f8373ffffffffffffffffffffffffffffffffffffffff1673ffffffffffffffffffffffffffffffffffffffff1681526020019081526020015f205f9054906101000a900460ff16905092915050565b610dbe6111fe565b5f73ffffffffffffffffffffffffffffffffffffffff168173ffffffffffffffffffffffffffffffffffffffff1603610e2e575f6040517f1e4fbdf7000000000000000000000000000000000000000000000000000000008152600401610e2591906120c6565b60405180910390fd5b610e3781611285565b50565b5f7f80ac58cd000000000000000000000000000000000000000000000000000000007bffffffffffffffffffffffffffffffffffffffffffffffffffffffff1916827bffffffffffffffffffffffffffffffffffffffffffffffffffffffff19161480610f0457507f5b5e139f000000000000000000000000000000000000000000000000000000007bffffffffffffffffffffffffffffffffffffffffffffffffffffffff1916827bffffffffffffffffffffffffffffffffffffffffffffffffffffffff1916145b80610f145750610f1382611826565b5b9050919050565b5f80610f268361188f565b90505f73ffffffffffffffffffffffffffffffffffffffff168173ffffffffffffffffffffffffffffffffffffffff1603610f9857826040517f7e273289000000000000000000000000000000000000000000000000000000008152600401610f8f91906121d1565b60405180910390fd5b80915050919050565b5f60045f8381526020019081526020015f205f9054906101000a900473ffffffffffffffffffffffffffffffffffffffff169050919050565b5f33905090565b610fee83838360016118c8565b505050565b5f80610ffe8461188f565b90505f73ffffffffffffffffffffffffffffffffffffffff168373ffffffffffffffffffffffffffffffffffffffff161461103f5761103e818486611a87565b5b5f73ffffffffffffffffffffffffffffffffffffffff168173ffffffffffffffffffffffffffffffffffffffff16146110ca5761107e5f855f806118c8565b600160035f8373ffffffffffffffffffffffffffffffffffffffff1673ffffffffffffffffffffffffffffffffffffffff1681526020019081526020015f205f82825403925050819055505b5f73ffffffffffffffffffffffffffffffffffffffff168573ffffffffffffffffffffffffffffffffffffffff161461114957600160035f8773ffffffffffffffffffffffffffffffffffffffff1673ffffffffffffffffffffffffffffffffffffffff1681526020019081526020015f205f82825401925050819055505b8460025f8681526020019081526020015f205f6101000a81548173ffffffffffffffffffffffffffffffffffffffff021916908373ffffffffffffffffffffffffffffffffffffffff160217905550838573ffffffffffffffffffffffffffffffffffffffff168273ffffffffffffffffffffffffffffffffffffffff167fddf252ad1be2c89b69c2b068fc378daa952ba7f163c4a11628f55a4df523b3ef60405160405180910390a4809150509392505050565b611206610fda565b73ffffffffffffffffffffffffffffffffffffffff166112246108be565b73ffffffffffffffffffffffffffffffffffffffff161461128357611247610fda565b6040517f118cdaa700000000000000000000000000000000000000000000000000000000815260040161127a91906120c6565b60405180910390fd5b565b5f60075f9054906101000a900473ffffffffffffffffffffffffffffffffffffffff1690508160075f6101000a81548173ffffffffffffffffffffffffffffffffffffffff021916908373ffffffffffffffffffffffffffffffffffffffff1602179055508173ffffffffffffffffffffffffffffffffffffffff168173ffffffffffffffffffffffffffffffffffffffff167f8be0079c531659141344cd1fd0a4f28419497f9722a3daafe3b4186f6b6457e060405160405180910390a35050565b8060065f8481526020019081526020015f209081611366919061294a565b507ff8e1a15aba9398e019f0b49df1a4fde98ee17ae345cb5f6b5e2c27f5033e8ce78260405161139691906121d1565b60405180910390a15050565b5f73ffffffffffffffffffffffffffffffffffffffff168273ffffffffffffffffffffffffffffffffffffffff160361141257816040517f5b08ba1800000000000000000000000000000000000000000000000000000000815260040161140991906120c6565b60405180910390fd5b8060055f8573ffffffffffffffffffffffffffffffffffffffff1673ffffffffffffffffffffffffffffffffffffffff1681526020019081526020015f205f8473ffffffffffffffffffffffffffffffffffffffff1673ffffffffffffffffffffffffffffffffffffffff1681526020019081526020015f205f6101000a81548160ff0219169083151502179055508173ffffffffffffffffffffffffffffffffffffffff168373ffffffffffffffffffffffffffffffffffffffff167f17307eab39ab6107e8899845ad3d59bd9653f200f220920489ca2b5937696c31836040516114fe9190611ed0565b60405180910390a3505050565b5f8373ffffffffffffffffffffffffffffffffffffffff163b11156116b0578273ffffffffffffffffffffffffffffffffffffffff1663150b7a02868685856040518563ffffffff1660e01b81526004016115699493929190612b3c565b6020604051808303815f875af19250505080156115a457506040513d601f19601f820116820180604052508101906115a19190612b9a565b60015b611625573d805f81146115d2576040519150601f19603f3d011682016040523d82523d5f602084013e6115d7565b606091505b505f81510361161d57836040517f64a0ae9200000000000000000000000000000000000000000000000000000000815260040161161491906120c6565b60405180910390fd5b805181602001fd5b63150b7a0260e01b7bffffffffffffffffffffffffffffffffffffffffffffffffffffffff1916817bffffffffffffffffffffffffffffffffffffffffffffffffffffffff1916146116ae57836040517f64a0ae920000000000000000000000000000000000000000000000000000000081526004016116a591906120c6565b60405180910390fd5b505b5050505050565b5f73ffffffffffffffffffffffffffffffffffffffff168273ffffffffffffffffffffffffffffffffffffffff1603611727575f6040517f64a0ae9200000000000000000000000000000000000000000000000000000000815260040161171e91906120c6565b60405180910390fd5b5f61173383835f610ff3565b90505f73ffffffffffffffffffffffffffffffffffffffff168173ffffffffffffffffffffffffffffffffffffffff16146117a5575f6040517f73c6ac6e00000000000000000000000000000000000000000000000000000000815260040161179c91906120c6565b60405180910390fd5b505050565b606060405180602001604052805f815250905090565b60606117cb82610f1b565b505f6117d56117aa565b90505f8151116117f35760405180602001604052805f81525061181e565b806117fd84611b4a565b60405160200161180e929190612ac7565b6040516020818303038152906040525b915050919050565b5f7f01ffc9a7000000000000000000000000000000000000000000000000000000007bffffffffffffffffffffffffffffffffffffffffffffffffffffffff1916827bffffffffffffffffffffffffffffffffffffffffffffffffffffffff1916149050919050565b5f60025f8381526020019081526020015f205f9054906101000a900473ffffffffffffffffffffffffffffffffffffffff169050919050565b808061190057505f73ffffffffffffffffffffffffffffffffffffffff168273ffffffffffffffffffffffffffffffffffffffff1614155b15611a32575f61190f84610f1b565b90505f73ffffffffffffffffffffffffffffffffffffffff168373ffffffffffffffffffffffffffffffffffffffff161415801561197957508273ffffffffffffffffffffffffffffffffffffffff168173ffffffffffffffffffffffffffffffffffffffff1614155b801561198c575061198a8184610d28565b155b156119ce57826040517fa9fbf51f0000000000000000000000000000000000000000000000000000000081526004016119c591906120c6565b60405180910390fd5b8115611a3057838573ffffffffffffffffffffffffffffffffffffffff168273ffffffffffffffffffffffffffffffffffffffff167f8c5be1e5ebec7d5bd14f71427d1e84f3dd0314c0f7b2291e5b200ac8c7c3b92560405160405180910390a45b505b8360045f8581526020019081526020015f205f6101000a81548173ffffffffffffffffffffffffffffffffffffffff021916908373ffffffffffffffffffffffffffffffffffffffff16021790555050505050565b611a92838383611c14565b611b45575f73ffffffffffffffffffffffffffffffffffffffff168373ffffffffffffffffffffffffffffffffffffffff1603611b0657806040517f7e273289000000000000000000000000000000000000000000000000000000008152600401611afd91906121d1565b60405180910390fd5b81816040517f177e802f000000000000000000000000000000000000000000000000000000008152600401611b3c929190612bc5565b60405180910390fd5b505050565b60605f6001611b5884611cd4565b0190505f8167ffffffffffffffff811115611b7657611b7561223c565b5b6040519080825280601f01601f191660200182016040528015611ba85781602001600182028036833780820191505090505b5090505f82602001820190505b600115611c09578080600190039150507f3031323334353637383961626364656600000000000000000000000000000000600a86061a8153600a8581611bfe57611bfd612bec565b5b0494505f8503611bb5575b819350505050919050565b5f8073ffffffffffffffffffffffffffffffffffffffff168373ffffffffffffffffffffffffffffffffffffffff1614158015611ccb57508273ffffffffffffffffffffffffffffffffffffffff168473ffffffffffffffffffffffffffffffffffffffff161480611c8c5750611c8b8484610d28565b5b80611cca57508273ffffffffffffffffffffffffffffffffffffffff16611cb283610fa1565b73ffffffffffffffffffffffffffffffffffffffff16145b5b90509392505050565b5f805f90507a184f03e93ff9f4daa797ed6e38ed64bf6a1f0100000000000000008310611d30577a184f03e93ff9f4daa797ed6e38ed64bf6a1f0100000000000000008381611d2657611d25612bec565b5b0492506040810190505b6d04ee2d6d415b85acef81000000008310611d6d576d04ee2d6d415b85acef81000000008381611d6357611d62612bec565b5b0492506020810190505b662386f26fc100008310611d9c57662386f26fc100008381611d9257611d91612bec565b5b0492506010810190505b6305f5e1008310611dc5576305f5e1008381611dbb57611dba612bec565b5b0492506008810190505b6127108310611dea576127108381611de057611ddf612bec565b5b0492506004810190505b60648310611e0d5760648381611e0357611e02612bec565b5b0492506002810190505b600a8310611e1c576001810190505b80915050919050565b5f604051905090565b5f80fd5b5f80fd5b5f7fffffffff0000000000000000000000000000000000000000000000000000000082169050919050565b611e6a81611e36565b8114611e74575f80fd5b50565b5f81359050611e8581611e61565b92915050565b5f60208284031215611ea057611e9f611e2e565b5b5f611ead84828501611e77565b91505092915050565b5f8115159050919050565b611eca81611eb6565b82525050565b5f602082019050611ee35f830184611ec1565b92915050565b5f819050919050565b611efb81611ee9565b8114611f05575f80fd5b50565b5f81359050611f1681611ef2565b92915050565b60038110611f28575f80fd5b50565b5f81359050611f3981611f1c565b92915050565b60048110611f4b575f80fd5b50565b5f81359050611f5c81611f3f565b92915050565b5f805f60608486031215611f7957611f78611e2e565b5b5f611f8686828701611f08565b9350506020611f9786828701611f2b565b9250506040611fa886828701611f4e565b9150509250925092565b5f81519050919050565b5f82825260208201905092915050565b5f5b83811015611fe9578082015181840152602081019050611fce565b5f8484015250505050565b5f601f19601f8301169050919050565b5f61200e82611fb2565b6120188185611fbc565b9350612028818560208601611fcc565b61203181611ff4565b840191505092915050565b5f6020820190508181035f8301526120548184612004565b905092915050565b5f6020828403121561207157612070611e2e565b5b5f61207e84828501611f08565b91505092915050565b5f73ffffffffffffffffffffffffffffffffffffffff82169050919050565b5f6120b082612087565b9050919050565b6120c0816120a6565b82525050565b5f6020820190506120d95f8301846120b7565b92915050565b6120e8816120a6565b81146120f2575f80fd5b50565b5f81359050612103816120df565b92915050565b5f806040838503121561211f5761211e611e2e565b5b5f61212c858286016120f5565b925050602061213d85828601611f08565b9150509250929050565b5f805f6060848603121561215e5761215d611e2e565b5b5f61216b868287016120f5565b935050602061217c868287016120f5565b925050604061218d86828701611f08565b9150509250925092565b5f602082840312156121ac576121ab611e2e565b5b5f6121b9848285016120f5565b91505092915050565b6121cb81611ee9565b82525050565b5f6020820190506121e45f8301846121c2565b92915050565b5f6080820190506121fd5f8301876121c2565b61220a60208301866121c2565b6122176040830185611ec1565b81810360608301526122298184612004565b905095945050505050565b5f80fd5b5f80fd5b7f4e487b71000000000000000000000000000000000000000000000000000000005f52604160045260245ffd5b61227282611ff4565b810181811067ffffffffffffffff821117156122915761229061223c565b5b80604052505050565b5f6122a3611e25565b90506122af8282612269565b919050565b5f67ffffffffffffffff8211156122ce576122cd61223c565b5b6122d782611ff4565b9050602081019050919050565b828183375f83830152505050565b5f6123046122ff846122b4565b61229a565b9050828152602081018484840111156123205761231f612238565b5b61232b8482856122e4565b509392505050565b5f82601f83011261234757612346612234565b5b81356123578482602086016122f2565b91505092915050565b61236981611eb6565b8114612373575f80fd5b50565b5f8135905061238481612360565b92915050565b5f805f606084860312156123a1576123a0611e2e565b5b5f6123ae86828701611f08565b935050602084013567ffffffffffffffff8111156123cf576123ce611e32565b5b6123db86828701612333565b92505060406123ec86828701612376565b9150509250925092565b7f4e487b71000000000000000000000000000000000000000000000000000000005f52602160045260245ffd5b60038110612434576124336123f6565b5b50565b5f81905061244482612423565b919050565b5f61245382612437565b9050919050565b61246381612449565b82525050565b6004811061247a576124796123f6565b5b50565b5f81905061248a82612469565b919050565b5f6124998261247d565b9050919050565b6124a98161248f565b82525050565b5f6080820190506124c25f8301876121c2565b6124cf60208301866120b7565b6124dc604083018561245a565b6124e960608301846124a0565b95945050505050565b5f806040838503121561250857612507611e2e565b5b5f612515858286016120f5565b925050602061252685828601612376565b9150509250929050565b5f67ffffffffffffffff82111561254a5761254961223c565b5b61255382611ff4565b9050602081019050919050565b5f61257261256d84612530565b61229a565b90508281526020810184848401111561258e5761258d612238565b5b6125998482856122e4565b509392505050565b5f82601f8301126125b5576125b4612234565b5b81356125c5848260208601612560565b91505092915050565b5f805f80608085870312156125e6576125e5611e2e565b5b5f6125f3878288016120f5565b9450506020612604878288016120f5565b935050604061261587828801611f08565b925050606085013567ffffffffffffffff81111561263657612635611e32565b5b612642878288016125a1565b91505092959194509250565b5f806040838503121561266457612663611e2e565b5b5f61267185828601611f08565b925050602083013567ffffffffffffffff81111561269257612691611e32565b5b61269e85828601612333565b9150509250929050565b5f80604083850312156126be576126bd611e2e565b5b5f6126cb858286016120f5565b92505060206126dc858286016120f5565b9150509250929050565b5f6060820190506126f95f8301866120b7565b612706602083018561245a565b61271360408301846124a0565b949350505050565b7f4e487b71000000000000000000000000000000000000000000000000000000005f52602260045260245ffd5b5f600282049050600182168061275f57607f821691505b6020821081036127725761277161271b565b5b50919050565b5f60608201905061278b5f8301866120b7565b61279860208301856121c2565b6127a560408301846120b7565b949350505050565b5f819050815f5260205f209050919050565b5f6020601f8301049050919050565b5f82821b905092915050565b5f600883026128097fffffffffffffffffffffffffffffffffffffffffffffffffffffffffffffffff826127ce565b61281386836127ce565b95508019841693508086168417925050509392505050565b5f819050919050565b5f61284e61284961284484611ee9565b61282b565b611ee9565b9050919050565b5f819050919050565b61286783612834565b61287b61287382612855565b8484546127da565b825550505050565b5f90565b61288f612883565b61289a81848461285e565b505050565b5b818110156128bd576128b25f82612887565b6001810190506128a0565b5050565b601f821115612902576128d3816127ad565b6128dc846127bf565b810160208510156128eb578190505b6128ff6128f7856127bf565b83018261289f565b50505b505050565b5f82821c905092915050565b5f6129225f1984600802612907565b1980831691505092915050565b5f61293a8383612913565b9150826002028217905092915050565b61295382611fb2565b67ffffffffffffffff81111561296c5761296b61223c565b5b6129768254612748565b6129818282856128c1565b5f60209050601f8311600181146129b2575f84156129a0578287015190505b6129aa858261292f565b865550612a11565b601f1984166129c0866127ad565b5f5b828110156129e7578489015182556001820191506020850194506020810190506129c2565b86831015612a045784890151612a00601f891682612913565b8355505b6001600288020188555050505b505050505050565b7f4e487b71000000000000000000000000000000000000000000000000000000005f52601160045260245ffd5b5f612a5082611ee9565b91507fffffffffffffffffffffffffffffffffffffffffffffffffffffffffffffffff8203612a8257612a81612a19565b5b600182019050919050565b5f81905092915050565b5f612aa182611fb2565b612aab8185612a8d565b9350612abb818560208601611fcc565b80840191505092915050565b5f612ad28285612a97565b9150612ade8284612a97565b91508190509392505050565b5f81519050919050565b5f82825260208201905092915050565b5f612b0e82612aea565b612b188185612af4565b9350612b28818560208601611fcc565b612b3181611ff4565b840191505092915050565b5f608082019050612b4f5f8301876120b7565b612b5c60208301866120b7565b612b6960408301856121c2565b8181036060830152612b7b8184612b04565b905095945050505050565b5f81519050612b9481611e61565b92915050565b5f60208284031215612baf57612bae611e2e565b5b5f612bbc84828501612b86565b91505092915050565b5f604082019050612bd85f8301856120b7565b612be560208301846121c2565b9392505050565b7f4e487b71000000000000000000000000000000000000000000000000000000005f52601260045260245ffdfea2646970667358221220aca87da6574a6a3abbd4e0debcd56cd90ee495e3454ed7c227200a2cac8d4f2364736f6c63430008150033",
  "immutableReferences": {},
  "source": "// SPDX-License-Identifier: MIT\r\npragma solidity ^0.8.9;\r\n\r\nimport \"@openzeppelin/contracts/token/ERC721/ERC721.sol\";\r\nimport \"@openzeppelin/contracts/token/ERC721/extensions/ERC721URIStorage.sol\";\r\nimport \"@openzeppelin/contracts/access/Ownable.sol\";\r\n\r\ncontract GardenContract is ERC721URIStorage, Ownable {\r\n    enum GardenSize { Small, Medium, Large }\r\n    enum GardenType { One, Two, All, Learn }\r\n\r\n    struct Garden {\r\n        uint256 gardenID;\r\n        address owner;\r\n        GardenSize size;\r\n        GardenType gardenType;\r\n    }\r\n\r\n    struct Plant {\r\n        uint256 plantID;\r\n        uint256 mintingDate;\r\n        bool isFruiting;\r\n        string metadataURI;\r\n    }\r\n\r\n    mapping(uint256 => Garden) public gardens;\r\n    mapping(uint256 => Plant) public plants;\r\n    uint256 public plantCounter;\r\n\r\n    event GardenRegistered(uint256 indexed gardenID, address owner, GardenSize size, GardenType gardenType);\r\n    event PlantAdded(uint256 indexed gardenID, uint256 indexed plantID, string metadataURI);\r\n\r\n    // Updated constructor to pass the name and symbol to ERC721\r\n    constructor() ERC721(\"OlinkPlants\", \"OLKP\") Ownable(msg.sender) {}\r\n\r\n    function registerGarden(uint256 _gardenID, GardenSize _size, GardenType _gardenType) public {\r\n        gardens[_gardenID] = Garden(_gardenID, msg.sender, _size, _gardenType);\r\n        emit GardenRegistered(_gardenID, msg.sender, _size, _gardenType);\r\n    }\r\n\r\n    function addPlant(uint256 _gardenID, string memory _metadataURI) public {\r\n        uint256 newPlantID = ++plantCounter;\r\n        plants[newPlantID] = Plant(newPlantID, block.timestamp, false, _metadataURI);\r\n        _mint(msg.sender, newPlantID);\r\n        _setTokenURI(newPlantID, _metadataURI);\r\n        emit PlantAdded(_gardenID, newPlantID, _metadataURI);\r\n    }\r\n\r\n    function updatePlantMetadata(uint256 _plantID, string memory _newMetadataURI, bool _isFruiting) public {\r\n        plants[_plantID].metadataURI = _newMetadataURI;\r\n        plants[_plantID].isFruiting = _isFruiting;\r\n        _setTokenURI(_plantID, _newMetadataURI);\r\n    }\r\n}\r\n",
  "sourcePath": "C:\\Users\\andlo\\Documents\\GitHub\\RegenerativeGardens\\olink\\contracts\\GardenContract.sol",
  "compiler": {
    "name": "solc",
    "version": "0.8.21+commit.d9974bed.Emscripten.clang"
  },
  "schemaVersion": "3.4.16",
  "updatedAt": "2024-11-01T16:24:38.104Z",
  "devdoc": {
    "errors": {
      "ERC721IncorrectOwner(address,uint256,address)": [
        {
          "details": "Indicates an error related to the ownership over a particular token. Used in transfers.",
          "params": {
            "owner": "Address of the current owner of a token.",
            "sender": "Address whose tokens are being transferred.",
            "tokenId": "Identifier number of a token."
          }
        }
      ],
      "ERC721InsufficientApproval(address,uint256)": [
        {
          "details": "Indicates a failure with the `operator`s approval. Used in transfers.",
          "params": {
            "operator": "Address that may be allowed to operate on tokens without being their owner.",
            "tokenId": "Identifier number of a token."
          }
        }
      ],
      "ERC721InvalidApprover(address)": [
        {
          "details": "Indicates a failure with the `approver` of a token to be approved. Used in approvals.",
          "params": {
            "approver": "Address initiating an approval operation."
          }
        }
      ],
      "ERC721InvalidOperator(address)": [
        {
          "details": "Indicates a failure with the `operator` to be approved. Used in approvals.",
          "params": {
            "operator": "Address that may be allowed to operate on tokens without being their owner."
          }
        }
      ],
      "ERC721InvalidOwner(address)": [
        {
          "details": "Indicates that an address can't be an owner. For example, `address(0)` is a forbidden owner in ERC-20. Used in balance queries.",
          "params": {
            "owner": "Address of the current owner of a token."
          }
        }
      ],
      "ERC721InvalidReceiver(address)": [
        {
          "details": "Indicates a failure with the token `receiver`. Used in transfers.",
          "params": {
            "receiver": "Address to which tokens are being transferred."
          }
        }
      ],
      "ERC721InvalidSender(address)": [
        {
          "details": "Indicates a failure with the token `sender`. Used in transfers.",
          "params": {
            "sender": "Address whose tokens are being transferred."
          }
        }
      ],
      "ERC721NonexistentToken(uint256)": [
        {
          "details": "Indicates a `tokenId` whose `owner` is the zero address.",
          "params": {
            "tokenId": "Identifier number of a token."
          }
        }
      ],
      "OwnableInvalidOwner(address)": [
        {
          "details": "The owner is not a valid owner account. (eg. `address(0)`)"
        }
      ],
      "OwnableUnauthorizedAccount(address)": [
        {
          "details": "The caller account is not authorized to perform an operation."
        }
      ]
    },
    "events": {
      "Approval(address,address,uint256)": {
        "details": "Emitted when `owner` enables `approved` to manage the `tokenId` token."
      },
      "ApprovalForAll(address,address,bool)": {
        "details": "Emitted when `owner` enables or disables (`approved`) `operator` to manage all of its assets."
      },
      "BatchMetadataUpdate(uint256,uint256)": {
        "details": "This event emits when the metadata of a range of tokens is changed. So that the third-party platforms such as NFT market could timely update the images and related attributes of the NFTs."
      },
      "MetadataUpdate(uint256)": {
        "details": "This event emits when the metadata of a token is changed. So that the third-party platforms such as NFT market could timely update the images and related attributes of the NFT."
      },
      "Transfer(address,address,uint256)": {
        "details": "Emitted when `tokenId` token is transferred from `from` to `to`."
      }
    },
    "kind": "dev",
    "methods": {
      "approve(address,uint256)": {
        "details": "See {IERC721-approve}."
      },
      "balanceOf(address)": {
        "details": "See {IERC721-balanceOf}."
      },
      "getApproved(uint256)": {
        "details": "See {IERC721-getApproved}."
      },
      "isApprovedForAll(address,address)": {
        "details": "See {IERC721-isApprovedForAll}."
      },
      "name()": {
        "details": "See {IERC721Metadata-name}."
      },
      "owner()": {
        "details": "Returns the address of the current owner."
      },
      "ownerOf(uint256)": {
        "details": "See {IERC721-ownerOf}."
      },
      "renounceOwnership()": {
        "details": "Leaves the contract without owner. It will not be possible to call `onlyOwner` functions. Can only be called by the current owner. NOTE: Renouncing ownership will leave the contract without an owner, thereby disabling any functionality that is only available to the owner."
      },
      "safeTransferFrom(address,address,uint256)": {
        "details": "See {IERC721-safeTransferFrom}."
      },
      "safeTransferFrom(address,address,uint256,bytes)": {
        "details": "See {IERC721-safeTransferFrom}."
      },
      "setApprovalForAll(address,bool)": {
        "details": "See {IERC721-setApprovalForAll}."
      },
      "supportsInterface(bytes4)": {
        "details": "See {IERC165-supportsInterface}"
      },
      "symbol()": {
        "details": "See {IERC721Metadata-symbol}."
      },
      "tokenURI(uint256)": {
        "details": "See {IERC721Metadata-tokenURI}."
      },
      "transferFrom(address,address,uint256)": {
        "details": "See {IERC721-transferFrom}."
      },
      "transferOwnership(address)": {
        "details": "Transfers ownership of the contract to a new account (`newOwner`). Can only be called by the current owner."
      }
    },
    "version": 1
  },
  "userdoc": {
    "kind": "user",
    "methods": {},
    "version": 1
  }
}